:020020007B0063
:1000000000000113492F1C28FE2C82012D381230CC
:18002400022F800B1930002F80030012022F47280017153002130313D4
:02005800113065
:0200220032307A
:20005A00ED3F8B01342F83010002111F101F282FA10B072FA20B763A0A3B842FB40B842F86
:20007A00B50B483B542F9B0B582F9C0B142F9D0B1E136A3A0A3B982FB40B842FB50B483B4B
:20009A00542F9B0B582F9C0B142F9D0B1E136A3AA22FB40B842FB50B483B542F9B0B582FF9
:2000BA009C0B142F9D0B1E136A3AA82FB40B842FB50B483B542F9B0B582F9C0B142F9D0BF1
:2000DA001E136A3A0A3BAF2FB40B842FB50B483B742FA70B842FA80B012FA60BA63A7C2F32
:2000FA00A70B842FA80B022FA60BA63A0C130D13012FAF0B022FB00BEF3A012FB30B203B85
:20011A00022FB30B203BD42F9B0B082F9C0B022F9D0B1E136A3A012FAF0B022FB00BEF3A47
:20013A00022FB30B203B012FB30B203BD42F9B0B082F9C0B022F9D0B1E136A3A0C120D10A2
:20015A008D0F800B8C0F0529800F6100C018802E6B00401885300A3BBB2FB40B842FB50B46
:20017A00483B0E2FB30B203B542F9B0B582F9C0B142F9D0B1E136A3AC52FB40B842FB50B4F
:20019A00483B0F2FB30B203B542F9B0B582F9C0B142F9D0B1E136A3A0A3BD22FB40B842F9C
:2001BA00B50B483B012FAF0B022FB00BEF3ADC2FB40B842FB50B483B542F9B0B582F9C0BCC
:2001DA00142F9D0B1E136A3A542F9B0B582F9C0B142F9D0B1E136A3A0A3B012FAF0B012FCF
:2001FA00B00BEF3AED2FB40B842FB50B483B012FAF0B022FB00BEF3A0E130F138E0F800BC6
:20021A008F0F80156D0080156D0080156D00032D80138E0EA10B800F8F0EA20B763A9E2FBF
:20023A00990B0F2F9A0B623A8E0FB30B203B202FB30B203B0E120F108F0F800B8E0F08292D
:20025A00800F6100C018802E6B0040180B31542F9B0B582F9C0B142F9D0B1E136A3AFE2FCB
:20027A00B40B842FB50B483B10131113910F800B900F08288013600080156D0080156D0077
:20029A0080156D00032D8013900EA10B800F910EA20B763A9E2F990B0F2F9A0B623A900F1B
:2002BA00B30B203B202FB30B203B10121110910F800B900F0729800F6100C018802E6B0085
:2002DA0040184331542F9B0B582F9C0B142F9D0B1E136A3A0A3B012FAF0B012FB00BEF3ADE
:2002FA00012FB40B852FB50B483B012FAF0B022FB00BEF3A12131313930F800B920F1028AE
:20031A008013600080156D0080156D0080156D00032D8013920EA10B800F930EA20B763A2E
:20033A009E2F990B0F2F9A0B623A920FB30B203B12121310930F800B920F0829800F6100C3
:20035A00C018802E6B0040188931542F9B0B582F9C0B142F9D0B1E136A3A0A3B012FAF0B3A
:20037A00012FB00BEF3A0F2FB40B852FB50B483B012FAF0B022FB00BEF3A792FA10B032FD6
:20039A00A20B763A9E2F990B0F2F9A0B623A042FBF0B40130C2FBC0B3D133E139C3B042FF9
:2003BA00B40B3513483B1E2FB40B852FB50B483B042FBF0B4013902FBC0B3D133E139C3B48
:2003DA00042FB40B3513483B542F9B0B582F9C0B142F9D0B1E136A3A0A3B492FA10B032F94
:2003FA00A20B763A9E2F990B0F2F9A0B623A222FA10B032FA20B763A9E2F990B0F2F9A0BB6
:20041A00623A2B2FA10B032FA20B763A9E2F990B0F2F9A0B623A032FAF0B012FB00BEF3AA1
:20043A00242FB40B852FB50B483BF12F940BFF2F950B940F960B950F970B960F1029970FFE
:20045A006100C018802E6B00401A5532042FBF0B4013960FBC0B970FBD0B3E139C3B022FCC
:20047A00AF0B022FB00BEF3A042FB40B3513483B362FB40B852FB50B483B14121510D42F6D
:20049A009B0B082F9C0B022F9D0B1E136A3A2632542F9B0B582F9C0B142F9D0B1E136A3AA1
:0404BA0039307A005B
:2008E80000020002000200021F021F021F02000200021F021F021F02000200020002000216
:200908005002460253020A020D0244026902730270026C0261027902610264026102700243
:20092800740265027202000254026502780274020A026C0266022002310200020A026C02FC
:2009480066022002320200020D0276026F0272026E02650200022002200255027302650213
:20096800720243026802610272027302000243027502720273026F027202200261026E027F
:20098800000225026C0243027502720273026F027202200261027502730200025402610202
:2009A800620275026C02610274026F027202000234022E023502090233022E0232020902DA
:2009C80038022E0234020902310232022E02310200024102640264026902740269026F02CC
:2009E8006E0261026C02200243026802610272027302000225026C020002420261026C02E3
:200A08006B0265026E027A02650269026302680265026E020002510275026102640272028D
:200A2800610274027A02650269026302680265026E0200022502310220023D022002000200
:200A4800250232022502320220025A022502310268026C02650272022002250233022502A8
:120A680033020002200220022002200220022002000277
:2004BE0098115F327A00000099129A10990F9A0E001A62327A0000009B129C109D109E10E9
:0E04DE009B0F9C0E9D0E9E0E001A6A327A0035
:1C003C00102FC10B272FC20BE82FC30B032FC40B642FC50B46130A2FC70B481372
:2004EC00101DC62F990B1A13623A2313082FA40B2513A10F230E800BA20F240E800E002B05
:20050C009032101FB82F980B5F3A101D332F980B5F3A9832101F332F980B5F3A101DB82F45
:20052C00980B5F3A241523162512A50F0C2940187F32101FB62F990B0B2F9A0B62327A0033
:20054C00A60F800B002F042DA20B800FA10B763A2913A70FAA0BA80FAB0BAA0F800BAB0F45
:20056C00683CAC0B2A122B10101FF22F990B012F9A0B623A101DC62F990B1A13623A802FFA
:20058C00AD0B2E13AC0F2D0E002BD532101FB82F980B5F3A101D332F980B5F3ADD32101FD3
:2005AC00332F980B5F3A101DB82F980B5F3A2D152E12AE0F08294018C8322912A90F08295B
:2005CC004018B332101F0E2F990B272F9A0B62327A00B00FB10B3213052FB115B2166300D4
:2005EC00F332B10FAF0E800BB20F012DA20B800FA10B763AE62F990B032F9A0B623AAF0F51
:20060C009F0BB00FA00B7A002113022FA20B763A012F9F0B012FA00B692F9B0B042F9C0BB1
:20062C00012F9D0B1E136A3A012FAF0B012FB00BEF327A00B30FA10B2213763ACE2F990B9D
:20064C00072F9A0B623AB30F0A2A3C33A00F022A3533962F990B3A2F9A0B623A36332012C1
:20066C009F0FAF0BA00FB00BEF3A3D331F12B30F0D2A4733012F9F0B012FAF0BA00FB00B31
:20068C00EF327A00B40FB60BB50FB70BB60F800BB70F683C002B9B33252A9633B60F0128F0
:2006AC00B40BB70F6000B50BB40FB80BB50FB90BB80F800BB90F683C002A6B33B80F012904
:2006CC00B40BB90F6100B50B9833BA0B252B7233BA0F6C2B76338933252FB30B203B8933F3
:2006EC00012FAF0BA00FB00BEF3A3B13202FB30B203B3B12BB0F102940187C33012FAF0B7A
:20070C00A00FB00BEF3ABA0F302940189833372FBA0C40189833BA0F3029B30B203B9833A0
:20072C00B30B203B3412351048337A004913052FBE0CBE0BBC0FBD0E002AB733BF0FCA0BA4
:20074C00C00FCB0BCA0F800B302F8003CA0F0128BF0BCB0F6000C00BBF0F800B002F8003C6
:20076C006734BD0F80294018CF33BF0FCC0BC00FCD0BCC0F800B2D2F8003CC0F0128BF0BA4
:20078C00CD0F6000C00B002FBC0CBC0B002FBD0DBD0B4E134F135013CE0F3E17F933BE0F76
:2007AC00002BF933C90F002AE933BF0FD10BC00FD20BD10F800B302F8003D10F0128BF0B42
:2007CC00D20F6000C00BBF0FD30BC00FD40BD30F800B2E2F8003D30F0128BF0BD40F600042
:2007EC00C00B012FC90BCE0F6B004128D50B56135713D50F800B8103D80B00128103D90B6A
:20080C00CF0F580CDA0BD00F590DDB0BBC0FDA0CBD0FDB0DC018802E6B0040181C34561214
:20082C005710DA0FCF0BDB0FD00BFF33D60FDC0BD70FDD0BD60FD70E002A2734C90F002B9F
:20084C003934BF0FDE0BC00FDF0BDC0F3028800BDE0F80138003DE0F0128BF0BDF0F6000B0
:20086C00C00B012FC90BCF0FBC08D00FBD094E12CE0F04294018D033BE0F042A5334BF0F41
:20088C00E00BC00FE10BE00F800B2E2F8003E00F0128BF0BE10F6000C00BBF0FE20BC00FC5
:2008AC00E30BBC0F3028800BE20F80138003E20F0128BF0BE30F6000C00BBF0F800B002F00
:1C08CC0080037A008029401A6D3481037A0080137200C201FF28801380037A00F2
:00000001FF
