:020020007B0063
:1000000000000113562F0428FE2C82011F381230E5
:1A002400022F800B1930002F80030012022F54280017153002130313113084
:02002200243088
:20003E00ED3F8B01342F83010002193981391F133C3AA00B802C002B37309F0F002A373025
:20005E00A00F7F2C9F0B022A2730043A1F132730072F9F0C401816319F0F01286700463000
:20007E00B7301631C230E23001310A311431A00F082B5930A00F092B6030A00F0A2B743018
:20009E00A00F0D2BA630A00F0E2BAC30A00F0F2BB030B330840F0129AD0B850FAE0BB43966
:2000BE001631840F0D2A401A6F300129C60B4713042FC80B4913633A01286B006B0001289C
:2000DE00AD0B850FAE0BB4391631850F022A9F30840FA10B012FAD0B012FAE0BB439221308
:2000FE00062F220C800B8103B50BE5392212A20F102940187F302239012FAD0B022FAE0B40
:20011E00B4392313202FB50BE5392312A30F102940189130A10FAD0B022FAE0BB4391631B2
:20013E00850F0128AE0B840FAD0BB4391631012FAD0B850FAE0BB4391631032FB70BFE3918
:20015E0016313713FE391631A00FB50BE5391631A00F1F2CAD0BA00F6E000F2C6A00072CF7
:20017E00AE0BB4391631A00F072CA40BA00F6A006A006A001F2CD00B082FD10BA03AE628D5
:20019E00801360008228B10B800FB00BA40FAF0BC639622FB90B3A130D3A840FAD0B850F6A
:2001BE00AE0BB4391631A00F072CA50B26133C3A800B172F260C801380032612A60F0829BC
:2001DE004018E630172FB00B3113A50FAF0BC639622FB90B3A130D3A840FAD0B850FAE0B60
:2001FE00B43916312713A70FA00C401A16313613F639271202312813A80FA00C401A16314D
:20021E00012FB60BF63928120B31A00FB5011F1327307A002E2FB201002FB401802FB50169
:20023E001E2FB5017A005613062F560C800B202F80035612D60F10294018233116137A00F1
:20025E00AA0F002B4F31A90F802C002B3831541F3931541DA90F402C002B3F31141F403173
:20027E00141DA90F202C002B4631D41E4731D41CA90F102C002B4D31941E6B31941C6B31F8
:20029E00A90F082C002B5531541F5631541DA90F042C002B5C31141F5D31141DA90F022CC0
:2002BE00002B6331D41E6431D41CA90F012C002B6A31941E6B31941C7A00541E9D2FB80BC6
:2002DE000A3A541C9D2FB80B0A327A00AB0FA90B012FAA0B2F396C39AB0FA90B2A132F3994
:2002FE006C317A00951ED51E151F551F151E551E141C2C13202FAB0B75396E2FB90B172F0C
:20031E00BA0B0D3A2C12AC0F032940188931282FAB0B75396E2FB90B172FBA0B0D3A0C2FD3
:20033E00AB0B75396E2FB90B172FBA0B0D3A012FAB0B75396E2FB90B172FBA0B0D3A012F11
:20035E00840B012F850B22317A00AD0F7F28800BAE0F01296E00F02C6B006B00000C141CF2
:20037E00AB0B7539AD0F840BAE0F850B7A00141C9D2FB80B0A3AAF0F6B006B006B0040287F
:20039E00AB0B7539141EB00FB20BB10FB30B3413B20F800BB30FDA3AAB0B7539321233105B
:2003BE003412B40F08294018D7317A00141EB50FAB0B7539850F022AF231840F01290628E3
:2003DE00800BB50F8003840F0128840B7A00B60F6B006B00182D141CAB0B75317A00B70FBC
:1603FE000C2D141CAB0B75317A008139141C012FAB0B75317A00BA
:2005CC000C02120212020C0200020002000200020E021102110211020A020A021B02000243
:2005EC00000200021F020A020A020A02130200020002090209020B020D020802100200023D
:20060C000102030207020F02070203020102000208020C020E020F020E020C020802000236
:20062C00110204020A0211021F0211021102000211020E0211021102110211020E020002AC
:20064C001102000211021102110211020E0200020A0200020E0201020F0211020F020002C3
:20066C000A0200020E021102110211020E0200020A02000200021102110211020E020002AA
:20068C0000020E02110216021102160210020002000200020A021F021F020E020402000268
:2006AC0000021F0210020802040208021F020002060201020202070200020002000200029C
:2006CC0000020002000200020002000200021F020002000200020002000200021F021F0291
:2006EC00000200020002000200021F021F021F0200020002000200021F021F021F021F02F5
:20070C000002000200021F021F021F021F021F02000200021F021F021F021F021F021F0258
:20072C0000021F021F021F021F021F021F021F021F021F021F021F021F021F021F021F02BC
:20041400B8110A327A000000B912BA10B90FBA0E001A0D327A000000BB12BC10BD10BE101D
:0E043400BB0FBC0EBD0EBE0E001A15327A00B4
:2004420041134213C20F800BC10FBF0C800FC00D401A3432C20F800BC10F0128C10B002F8E
:20046200000DC20B23327A00111D102F820A820F8D01121F7A004313012FC40BD001102CAC
:200482006E000F2C002A3F32422FBF0B4013213A4513C50F0829401A6132D001102C6E0068
:2004A2000F2C002B5732C40FC30A5A32C40FFF2E430A2C2FBF0B4013213AC41545124A3253
:0404C200C30F7A00EA
:2004C600C70F6B00002F6D00CA0B002B7032002FC60C800B002FC70D7332C60F800BC70F2D
:2004E600CC0B800FCB0BC90F6B00002F6D00CD0B002B8332002FC80C800B002FC90D8632D8
:20050600C80F800BC90FD50B800FD40BCB0FD20BCC0FD30BB73ACE0B800FCF0BCA0F4D0F75
:1A052600002B9C32002FCE0C800B002FCF0D80137A00CF0F800BCE0F7A0056
:20054000561357130013800F0829401AB332D615D716D00F802C002BB032D10F56085710A1
:0E056000D0150012A332D70F800BD60F7A00F1
:20056E0056135713102FD80B0013D30F6B00002F6D00D215D316D615D716002BC832012F7F
:20058E00D60AD60FD40CD70FD50D4018D432D40FD608D50FD709012FD20AD811BB32D30F39
:1E05AE00800BD20F7A008029401ADF3281037A0080137200C201FF28801380037A00B8
:00000001FF
