:100000000C94A0000C94BD000C94BD000C94BD0099
:100010000C94BD000C94BD000C94BD000C94BD006C
:100020000C94BD000C94BD000C94BD000C94BD005C
:100030000C94BD000C94BD000C94BF000C94BD004A
:100040000C94BD000C94BD000C94BD000C94BD003C
:100050000C94BD000C94BD000C94BD000C94BD002C
:100060000C94BD000C94BD00257025502564202003
:100070002020005A2563686C65723A00256B0925BB
:100080006B09256B09256B00546162756C61746F97
:100090007200256425633D2025642000517561644C
:1000A0007261747A65696368656E002563004261F8
:1000B0006C6B656E7A65696368656E002563200008
:1000C0002550256C00256320002550256C004164D7
:1000D000646974696F6E616C204368617273256333
:1000E000002563437572736F7220617573004375E9
:1000F00072736F7220616E25630025702550256331
:10010000256300257025502563256300256C20207C
:10011000557365724368617273000D766F726E6518
:10012000000A6C66203200546578740A6C662031CF
:100130000025630050726F677265737362617200AD
:1001400011241FBECFEFD4E0DEBFCDBF11E0A0E091
:10015000B1E0E4E4FDE002C005900D92A234B107E5
:10016000D9F721E0A2E4B1E001C01D92A237B207A5
:10017000E1F70E94D0030C94A0060C9400001F929B
:100180000F920FB60F9211248F939F93EF93FF93CB
:1001900080914B01813009F580914A018150D9F459
:1001A000809147019091480180FF44C0449A80911A
:1001B00047019091480196958795909348018093C7
:1001C000470180914901815080934901811102C00A
:1001D00010924B0183E080934A0180914D0181117F
:1001E00020C080914601882339F1809145018150DA
:1001F00080934501811115C01092460110924C0167
:10020000E0914F01F0E080914401E05BFE4F80837C
:1002100080914F018F5F80934F01803210F01092D8
:100220004F01FF91EF919F918F910F900FBE0F9013
:100230001F9018954498BBCF80914C01811110C03C
:100240003599EFCF81E080934C011092440194E006
:100250009093450198E09093430180934201E1CF50
:10026000809145018150B9F480914201359B05C0D0
:1002700090914401982B90934401880F8093420100
:1002800080914301815080934301811103C081E03B
:100290008093460183E080934501C3CF10924B01C8
:1002A00010924C0110924D01449A3C9A3D989FB790
:1002B000F89484E487BD82E084BD85BDEEE6F0E07D
:1002C00080818260808316BC9FBF10924D0178941C
:1002D000089510924D01089581E080934D01089595
:1002E00090914E0180914F019817E1F3E92FF0E0D2
:1002F000E05BFE4F80819F5F903218F490934E0137
:10030000089510924E01089590914F0181E020913F
:100310004E01291301C080E0089510924F01109200
:100320004E01089590914B0181E0913009F080E0F9
:10033000089590914B019130E1F393E090934A013D
:100340009AE090934901880F990B9260909348012D
:100350008093470181E080934B010895CF93DF9311
:10036000EC018991811103C0DF91CF9108950E9422
:100370009901F7CFCF93DF93EC01FE018491219691
:10038000811103C0DF91CF9108950E949901F5CFAB
:100390008DE00E9499018AE00C9499010E947001FD
:1003A000082E000C990B08950E9499010895CF938F
:1003B000C82F0E9499018FED9EE20197F1F700C0CE
:1003C0000000CA3081F480917001823041F48FE5E1
:1003D0009AEE0197F1F700C00000CF9108958F5F6A
:1003E00080937001FACF809171018F5F80937101CA
:1003F000F4CFCF93C82F87E80E94D7018C2F8F7737
:10040000CF910C94D7010E944E018FE19EE4019799
:10041000F1F700C0000080E20E94D70182E80E944C
:10042000D7019FEF27EE83E0915020408040E1F715
:1004300000C000008FE19EE40197F1F700C00000CA
:100440000895CF93DF93D82FC62F81E80E94D7015C
:1004500020E2C29FC00111248D2B0E94D701D093AE
:100460007101C0937001DF91CF910895CF93DF9315
:10047000C82FD62F83E80E94D70188E0C89F90013B
:1004800011248D2F8770822B0E94D7018FE19EE46B
:100490000197F1F700C00000DF91CF9108950F930D
:1004A0001F93CF93DF93182FEB0184E80E94D701AD
:1004B000812F0E94D7018E01085F1F4F89910E94F2
:1004C000D701C017D107D1F78FE19EE40197F1F76B
:1004D00000C00000DF91CF911F910F910895CF933D
:1004E000C82F85E80E94D7018C2F0E94D7018FE189
:1004F0009EE40197F1F700C00000CF910895CF93DB
:10050000C82F86E80E94D7018C2F0E94D7018FE167
:100510009EE40197F1F700C00000CF9108958F92FB
:100520009F92AF92BF92CF92DF92EF92FF921F9372
:10053000CF93DF93EC01F62E80E3209709F450C0AF
:10054000D7FF06C08DE20E94D701D195C195D10990
:1005500015E01F1989E3A82E81E0B82EF12CE12CBB
:1005600030E020E0812E012E000C99088E149F04AB
:1005700061F4112351F0232B19F480E30E94D70179
:100580008EE20E94D70121E030E0F5016191719186
:100590005F0190E080E0D12CC12C02C001966A017D
:1005A000A601460F571FC417D507C0F7009719F4C7
:1005B0002115310529F0805D0E94D70121E030E04E
:1005C000CC19DD09FFEFEF1AFF0A84E0E816F10409
:1005D00069F6143019F48EE20E94D7018C2F805DE9
:1005E000DF91CF911F91FF90EF90DF90CF90BF9060
:1005F000AF909F908F900C94D7018A3018F4805D53
:100600000C94D701895CFCCFCF93DF93EC018F3F33
:10061000910551F048F08D2F82958F700E94FD0258
:100620008D2F8F700E94FD02CE0124E09695879554
:100630002A95E1F78F700E94FD028C2F8F70DF9159
:10064000CF910C94FD02CF93DF93EC01888181114F
:100650000E94D7012196FE01319780818111F6CF4A
:10066000DF91CF910895CF92DF92EF92FF920F9397
:100670001F93CF93DF93CDB7DEB7FE013B96C190BA
:10068000D1908F01F6018491882309F480C08532CE
:1006900009F05CC0FFEFCF1ADF0AF60184918B36B8
:1006A00009F443C0D0F4803509F468C038F48532C9
:1006B00009F44BC0FFEFCF1ADF0AE4CF8336E1F134
:1006C0007801F2E0EF0EF11C60E0843699F7F80152
:1006D000808191810E948F0226C0803709F443C037
:1006E000A8F48C3639F76091700181E00E942102F4
:1006F00080E1F82E80E20E94D701FA94F110FACF3F
:100700006091700181E00E942102D4CF833709F10A
:10071000883781F67801F2E0EF0EF11CF801808154
:1007200091810E9404038701C5CF7801F2E0EF0EAA
:10073000F11C60910001CBCF7801F2E0EF0EF11CCB
:10074000F80180810E94D701EECF85E20E94D70197
:10075000B1CF7801F2E0EF0EF11CF80180819181B8
:100760000E942303E0CF7801F2E0EF0EF11C6091CC
:100770007001F80180810E942102D5CF7801F2E05A
:10078000EF0EF11CF801608180917101F4CFDF91CF
:10079000CF911F910F91FF90EF90DF90CF90089530
:1007A0000E94030284E10E94F9012FEF80E792E0AA
:1007B000215080409040E1F700C0000064E3262E05
:1007C00061E0362E7AEF672E70E0772EEEEE8E2EF9
:1007D000E0E09E2EC1EED0E00EEC10E0F9ECEF2E42
:1007E000F0E0FF2EA5ECCA2EA0E0DA2E82E80E94EF
:1007F000D7012FEF87EE93E0215080409040E1F742
:1008000000C0000061E083E00E9421028FE00E94AE
:10081000D7013F922F920E94330351E0A52E51E061
:10082000B52E0F900F90512CB501852D0E944F02CF
:10083000539428E0A20EB11C85E05812F5CFB12CDC
:1008400045E0442E8B2D642D0E949406A92E62E073
:100850008F5F0E9421021F92AF9281E391E09F93EC
:100860008F930E9433038FEF99EF20E081509040E7
:100870002040E1F700C00000B3940F900F900F905C
:100880000F9080E5B812DECF9FEF27EA81E6915006
:1008900020408040E1F700C0000082E80E94D701BC
:1008A0009FEF27EE83E0915020408040E1F700C0A9
:1008B000000087E291E09F938F930E9433038FEFB4
:1008C00097EA21E6815090402040E1F700C0000007
:1008D00081E291E09F938F930E9433038FEF97EA19
:1008E00021E6815090402040E1F700C000008AE1FD
:1008F00091E09F938F930E9433038FEF97EA21E655
:10090000815090402040E1F700C0000082E80E9442
:10091000D7018FEF97EE23E0815090402040E1F720
:1009200000C0000061E081E00E9421028CE091E0C3
:100930009F938F930E94330361E371E081E00E94F3
:100940004F0269E271E082E00E944F028DB79EB7CC
:1009500008960FB6F8949EBF0FBE8DBF32E0B32E3F
:10096000AA24A3941F92BF921F92AF921F92BF928C
:100970001F92AF9283E091E09F938F930E94330385
:100980008FEF93EC29E0815090402040E1F700C0C8
:1009900000001F92AF921F92BF921F92BF921F92B0
:1009A000AF927F926F920E9433038FEF93EC29E016
:1009B000815090402040E1F700C000005A948DB76C
:1009C0009EB744960FB6F8949EBF0FBE8DBF5110D0
:1009D000C9CF82E80E94D7019FEF27EE83E09150B4
:1009E00020408040E1F700C000001F928EE08F930E
:1009F0009F928F920E9433039FEF27EA81E69150E6
:100A000020408040E1F700C0000061E081E00E94EA
:100A100021021F928FE08F93DF93CF930E943303C5
:100A20008FEF97EA21E6815090402040E1F700C027
:100A3000000082E80E94D7018FEF97EE23E08150FB
:100A400090402040E1F700C0000061E081E00E949A
:100A500021021F930F930E9433031F92BF92FF92B4
:100A6000EF920E94330362E081E00E9421028DB781
:100A70009EB70E960FB6F8949EBF0FBE8DBFB12CD9
:100A8000A12C6A2D8A2D0E943602BF92AF92DF926E
:100A9000CF920E9433039FEFA91AB90A0F900F90CB
:100AA0000F900F9028E0A216B10459F78FEF97EA44
:100AB00021E6815090402040E1F700C000001F92E5
:100AC00082E08F9380EC90E09F938F930E9433039A
:100AD00062E081E00E9421020F900F900F900F9032
:100AE000512C412C2CEBA22E20E0B22E642D88E05C
:100AF000840D0E9436025F924F92BF92AF920E9485
:100B000033038FEF481A580A0F900F900F900F90F1
:100B100097E04916510451F72FEF87EA91E62150EB
:100B200080409040E1F700C0000082E80E94D701B9
:100B30002FEF87EE93E0215080409040E1F700C016
:100B4000000061E081E00E9421028EEA90E09F9324
:100B50008F930E94330362E081E00E9421020F9094
:100B60000F90512C412C9BEAA92E90E0B92E642DB8
:100B700080E1840D0E9436025F924F92BF92AF9245
:100B80000E9433032FEF421A520A0F900F900F90DA
:100B90000F9088E04816510451F79FEF27EA81E64D
:100BA000915020408040E1F700C0000082E80E94A0
:100BB000D7019FEF27EE83E0915020408040E1F77E
:100BC00000C0000061E081E00E9421028CE990E019
:100BD0009F938F930E94330362E081E00E94210281
:100BE00061E08FE00E9436021F9289E08F931F928E
:100BF000BB24B394BF921F9283E08F9382E990E06D
:100C00009F938F930E9433039FEF27EA81E69150D1
:100C100020408040E1F700C0000082E80E94D70138
:100C20009FEF27EE83E0915020408040E1F700C025
:100C30000000B092000161E081E00E94210288E89A
:100C400090E09F938F930E94330362E081E00E94C3
:100C500021021F9286E18F931F9287E28F931F924A
:100C600082E18F931F928DE28F938CE790E09F93A8
:100C70008F930E9433039FEF27EA81E69150204033
:100C80008040E1F700C0000082E80E94D7019FEF9A
:100C900027EE83E0915020408040E1F700C0000043
:100CA00062E089E00E94360261E081E00E94210258
:100CB0001F9282E08F9383E790E09F938F930E942F
:100CC00033038DB79EB74A960FB6F8949EBF0FBEFA
:100CD0008DBF512C412C88E6A82E80E0B82E5F9263
:100CE0004F921F9292E09F931F9223E02F93BF9207
:100CF000AF920E9433038FEF99E628E18150904034
:100D00002040E1F700C000008FEF481A580A8DB765
:100D10009EB708960FB6F8949EBF0FBE8DBF9BE09E
:100D200049165104E1F662CD991B79E004C0991F80
:100D3000961708F0961B881F7A95C9F78095089535
:040D4000F894FFCF55
:100D44000110101010101010101818181818181876
:100D5400181C1C1C1C1C1C1C1C1E1E1E1E1E1E1EC5
:100D64001E1F1F1F1F1F1F1F1F001F1F1F0000000C
:100D740000000000001F1F1F001027E80364000A82
:020D840000006D
:00000001FF
