:020020007B0063
:10000000000001136A2F0428FE2C82011F381230D1
:1A002400022F800B1930002F80030012022F68280017153002130313113070
:02002200243088
:20003E00ED3F8B01342F830100024E2FD40BC32FD50B143B4B39183AB939111D102F820AC3
:20005E00820F8D01121F52399F0B800FA00B0013A00F082A401A3230012867004530D93005
:20007E00EA30EC30093113312B314431A00F800B9F0F0013A10B800FA20BA10FA30BA20FEB
:20009E00A40BA30F7F29A40F6100401A3230A30F082A5C30A40F002B7B30A30F092A6230F9
:2000BE00A40F002B8230A30F0A2A6830A40F002B9630A30F0D2A6E30A40F002BC830A30F61
:2000DE000E2A7430A40F002BCE30A30F0F2A7A30A40F002BD230D530840F0129BF0B850FB5
:2000FE00C00B483A3230840F0D2A401A91300129DA0B5B13042FDC0B5D13283B01286B0050
:20011E006B000128BF0B850FC00B483A3230850F022AC130840FA50B012FBF0B012FC00B37
:20013E00483A26130E2F260C800B8103D00BEE3A2612A60F10294018A130012FBF0B022FEB
:20015E00C00B483AB9392713202FD00BEE3A2712A70F10294018B330A50FBF0B022FC00BD9
:20017E00483A3230850F0128C00B840FBF0B483A3230012FBF0B850FC00B483A3230032F45
:20019E00D20B053B32305213053B3230A10FD00BEE3A32309F0F1F2CBF0B9F0FA80BA00FD3
:2001BE00A90B052F291528166300E130A80F072CC00B483A32300B3B32309F0F072CAA0B72
:2001DE00A00F800B9F0FF82C001300156C0000156C0000156C00E40B082FE50B653BAB28D6
:2001FE00801360008328C30B800FC20BAA0FC10B5A3A32309F0FAB0B7B3A062FC20B43132D
:20021E00AB0FC10B5A3A3230A00F800B9F0F0013AC0B800FAD0B2E130013AE0FAC0C800FF3
:20023E00AD0D401A32305113FD3A9E2FD40B0F2FD50B143B2E121B31A00F800B9F0F0013EF
:20025E00AF0B800FB00B31130013B10FAF0C800FB00D401A3230012FD10BFD3A9E2FD40BB3
:20027E000F2FD50B143B31123331A00F800B9F0F0013B50132307A002E2FB2011F2FB401AC
:20029E001E2FB5017A00D001102C6E000F2C002A5231321333133413B215B316351336136D
:2002BE00D001102C6E000F2C002A7331B60F800BB50F3229800F6100401A7331182FD30B1A
:2002DE00113B351236105F31B60F800BB50F322A7F31800F002A7F31FE2FB20B3313B531F8
:2002FE0037133813D001102C6E000F2C002B9531B80F800BB70F3229800F6100401A953121
:20031E00182FD30B113B371238108131B70FB90BB80FBA0BB90F322AA331BA0F002AA33136
:20033E00FF2FB20B3313B531042FB90C002FBA0D401AB031B20F012D800BB30FB30B800FD6
:20035E00B20B3412B40F0C2940185B31B30F800BB20F7A006A130E2F6A0C800B202F80038B
:20037E006A12EA0F10294018BA311E137A00BC0F002BE631BB0F802C002BCF31541FD031A1
:20039E00541DBB0F402C002BD631141FD731141DBB0F202C002BDD31D41EDE31D41CBB0FF0
:2003BE00102C002BE431941E0232941C0232BB0F082C002BEC31541FED31541DBB0F042C97
:2003DE00002BF331141FF431141DBB0F022C002BFA31D41EFB31D41CBB0F012C002B013276
:2003FE00941E0232941C7A00541E9D2FD30B113B541C9D2FD30B11337A00BD0FBB0B012FCD
:20041E00BC0BC639033ABD0FBB0B3C13C63903327A00951ED51E151F551F151E551E141C08
:20043E003E13202FBD0B0C3A6E2FD40B172FD50B143B3E12BE0F032940182032282FBD0BED
:20045E000C3A6E2FD40B172FD50B143B0C2FBD0B0C3A6E2FD40B172FD50B143B012FBD0B15
:20047E000C3A6E2FD40B172FD50B143B041305137A00BF0F7F28800BC00F01296E00F02CFB
:20049E006B006B00000C141CBD0B0C3ABF0F840BC00F850B7A00141CC10F6B006B006B00A7
:2004BE004028BD0B0C3A141EC20FC40BC30FC50B4613C40F800BC50F9F3BBD0B0C3A44126B
:2004DE0045104612C60F082940186832840FBF0B850FC00B48327A00DA2FD40B052FD50BAD
:2004FE00143B4713D001102C6E000F2C002A813248134913C8154A134B13D001102C6E00D8
:20051E000F2C002AA032CB0F800BCA0F3229800F6100401AA032182FD30B113B4A124B10A9
:20053E008C32CB0F800BCA0F322AAB32800F002AAB32FE2FC80BEC324C134D13D001102CE8
:20055E006E000F2C002BC132CD0F800BCC0F3229800F6100401AC132182FD30B113B4C120D
:20057E004D10AD32CC0FCE0BCD0FCF0BCE0F322ACE32CF0F002ACE32FF2FC80BEC32042F24
:20059E00CE0C002FCF0D401AD632012FC80AD001102C6E000F2C002BD6324912C90F0829A7
:2005BE0040188932062F470C800BC80F80034712C70F0829401881320002C80F7A00141EAD
:2005DE00D00FBD0B0C3A850F022AFB32840F01290E28800BD00F800304127A00D10F6B0068
:2005FE006B00182D141CBD0B0C327A00D20F0C2D141CBD0B0C327A00141C012FBD0B0C3A45
:04061E00B9317A0074
:200756000C02120212020C0200020002000200020E021102110211020A020A021B020002B7
:20077600000200021F020A020A020A02130200020002090209020B020D02080210020002B1
:200796000102030207020F02070203020102000208020C020E020F020E020C0208020002AB
:2007B600110204020A0211021F0211021102000211020E0211021102110211020E02000221
:2007D6001102000211021102110211020E0200020A0200020E0201020F0211020F02000238
:2007F6000A0200020E021102110211020E0200020A02000200021102110211020E0200021F
:2008160000020E02110216021102160210020002000200020A021F021F020E0204020002DC
:2008360000021F0210020802040208021F0200020602010202020702000200020002000210
:2008560000020002000200020002000200021F020002000200020002000200021F021F0205
:20087600000200020002000200021F021F021F0200020002000200021F021F021F021F0269
:200896000002000200021F021F021F021F021F02000200021F021F021F021F021F021F02CD
:2008B60000021F021F021F021F021F021F021F021F021F021F021F021F021F021F021F0231
:20062200D31111337A000000D412D510D40FD50E001A14337A000000D612D710D810D9100A
:0E064200D60FD70ED80ED90E001A1C337A0030
:20065000DB0F6B00002F6D00DE0B002B3533002FDA0C800B002FDB0D3833DA0F800BDB0F9D
:20067000E00B800FDF0BDD0F6B00002F6D00E10B002B4833002FDC0C800B002FDD0D4B3348
:20069000DC0F800BDD0FE90B800FE80BDF0FE60BE00FE70B7C3BE20B800FE30BDE0F610F34
:1A06B000002B6133002FE20C800B002FE30D80137A00E30F800BE20F7A00B5
:2006CA006A136B130013800F0829401A7833EA15EB16E40F802C002B7533E50F6A086B10EA
:0E06EA00E41500126833EB0F800BEA0F7A0064
:2006F8006A136B13102FEC0B0013E70F6B00002F6D00E615E716EA15EB16002B8D33012F8E
:20071800EA0AEA0FE80CEB0FE90D40189933E80FEA08E90FEB09012FE60AEC118033E70F31
:1E073800800BE60F7A008029401AA43381037A0080137200C201FF28801380037A0052
:00000001FF
