:100000000C949E000C94BB000C94BB000C94BB00A1
:100010000C94BB000C94BB000C94BB000C94BB0074
:100020000C94BB000C94BB000C94BB000C94BB0064
:100030000C94BB000C94BB000C94BB000C94BB0054
:100040000C94BB000C94BB000C94BB000C94BB0044
:100050000C94BB000C94BB000C94BB000C94BB0034
:100060000C94BB000C94BB00257025502564202007
:100070002020005A2563686C65723A00256B0925BB
:100080006B09256B09256B00546162756C61746F97
:100090007200256425633D2025642000517561644C
:1000A0007261747A65696368656E002563004261F8
:1000B0006C6B656E7A65696368656E002563200008
:1000C0002550256C00256320004164646974696FC4
:1000D0006E616C204368617273256300256343750C
:1000E00072736F722061757300437572736F722043
:1000F000616E2563002570255025632563002570FA
:1001000025502563256300256C20205573657243B7
:1001100068617273000D766F726E65000A6C6620FE
:100120003200546578740A6C6620310025630050F3
:10013000726F6772657373626172000011241FBE73
:10014000CFEFD4E0DEBFCDBF11E0A0E0B1E0EAEB3D
:10015000FBE002C005900D92A234B107D9F721E06F
:10016000A2E4B1E001C01D92A434B207E1F70E94FD
:10017000B7020C94DB050C940000AC0144988FE1AD
:1001800093E00197F1F700C000009CE020E038E028
:10019000BA0162237323449A672BB9F0E7E1F1E0D7
:1001A0003197F1F700C000004498FAE6FA95F1F7AC
:1001B00000C036952795915059F7449A8FED9EE2ED
:1001C0000197F1F700C0000008958AE68A95F1F7DB
:1001D00000C04498E7E1F1E03197F1F700C000007A
:1001E000E8CFCF93DF93EB0190E094600E94BD00D5
:1001F0009E01285F3F4F4991449A8FEC97E0019709
:10020000F1F700C000004498EFE1F3E03197F1F717
:1002100000C0000088E090E8542F5923449AD9F098
:10022000E7E1F1E03197F1F700C000004498FAE609
:10023000FA95F1F700C09695815071F7C217D30770
:10024000D1F6449A8FE39CE90197F1F700C00000D2
:10025000DF91CF9108955AE65A95F1F700C044987E
:10026000E7E1F1E03197F1F700C00000E4CFCF9370
:10027000DF93D82FC62F80E2689F900111248D2F25
:1002800090E09160822B932B0E94BD008FE99FE04C
:100290000197F1F700C00000D0934301C0934201E1
:1002A000DF91CF910895CF93C82F90E00E94BD00B9
:1002B0008FE39FE10197F1F700C00000CA3081F49D
:1002C00080914201823041F48FE59AEE0197F1F777
:1002D00000C00000CF9108958F5F80934201FACF54
:1002E000809143018F5F80934301F4CF8F929F925F
:1002F000AF92BF92CF92DF92EF92FF921F93CF9374
:10030000DF93EC01F62E80E3209709F450C0D7FF6D
:1003100006C08DE20E945301D195C195D10915E027
:100320001F1989E3A82E81E0B82EF12CE12C30E0D2
:1003300020E0812E012E000C99088E149F0461F498
:10034000112351F0232B19F480E30E9453018EE214
:100350000E94530121E030E0F501619171915F014C
:1003600090E080E0D12CC12C02C001966A01A60168
:10037000460F571FC417D507C0F7009719F421156A
:10038000310529F0805D0E94530121E030E0CC1955
:10039000DD09FFEFEF1AFF0A84E0E816F10469F6C1
:1003A000143019F48EE20E9453018C2F805DDF918E
:1003B000CF911F91FF90EF90DF90CF90BF90AF90C3
:1003C0009F908F900C9453018A3018F4805D0C94A8
:1003D0005301895CFCCFCF93DF93EC018F3F9105F4
:1003E00051F048F08D2F82958F700E94E4018D2F7F
:1003F0008F700E94E401CE0124E0969587952A959E
:10040000E1F78F700E94E4018C2F8F70DF91CF9104
:100410000C94E401CF93DF93EC01888181110E9459
:1004200053012196FE01319780818111F6CFDF9132
:10043000CF910895CF92DF92EF92FF920F931F9387
:10044000CF93DF93CDB7DEB7FE013B96C190D1903D
:100450008F01F6018491882309F480C0853209F068
:100460005CC0FFEFCF1ADF0AF60184918B3609F4E6
:1004700043C0D0F4803509F468C038F4853209F4FB
:100480004BC0FFEFCF1ADF0AE4CF8336E1F17801EA
:10049000F2E0EF0EF11C60E0843699F7F8018081FC
:1004A00091810E94760126C0803709F443C0A8F4E8
:1004B0008C3639F76091420181E00E94370180E17A
:1004C000F82E80E20E945301FA94F110FACF609165
:1004D000420181E00E943701D4CF833709F1883788
:1004E00081F67801F2E0EF0EF11CF8018081918134
:1004F0000E94EB018701C5CF7801F2E0EF0EF11CFD
:1005000060910001CBCF7801F2E0EF0EF11CF80111
:1005100080810E945301EECF85E20E945301B1CF4A
:100520007801F2E0EF0EF11CF801808191810E94C8
:100530000A02E0CF7801F2E0EF0EF11C6091420177
:10054000F80180810E943701D5CF7801F2E0EF0EEB
:10055000F11CF801608180914301F4CFDF91CF91CC
:100560001F910F91FF90EF90DF90CF9008953C9AEC
:10057000449A83E297E00E94BD0075EF272E70E059
:10058000372EE9EE4E2EE0E05E2EFCED6F2EF0E011
:100590007F2E09EC10E0A5ECEA2EA0E0FA2EB0ECDC
:1005A000CB2EB0E0DB2E80E092E00E94BD002FEF6A
:1005B00081EE94E0215080409040E1F700C00000BF
:1005C00061E081E00E94370161E083E00E94370131
:1005D0008FE00E9453018FE291E09F938F930E94DE
:1005E0001A02C1E0D1E00F900F90A12CBE018A2D1C
:1005F0000E94F100BB24B394BA0C2896AB2C85E082
:10060000B812F4CFC0E065E0A62E8C2F6A2D0E94B0
:10061000C105D92F62E08F5F0E9437018D2F0D2E0B
:10062000000C990B9F93DF938CE291E09F938F9343
:100630000E941A028FEF96E721E0815090402040FF
:10064000E1F700C00000CF5F0F900F900F900F9068
:10065000C035D9F68FEF97EA21E6815090402040CF
:10066000E1F700C0000080E092E00E94BD008FEF43
:1006700091EE24E0815090402040E1F700C000005E
:1006800061E081E00E94370182E291E09F938F93C5
:100690000E941A028FEF97EA21E681509040204095
:1006A000E1F700C000008CE191E09F938F930E94DE
:1006B0001A028FEF97EA21E6815090402040E1F73F
:1006C00000C0000085E191E09F938F930E941A0281
:1006D0008FEF97EA21E6815090402040E1F700C07B
:1006E000000080E092E00E94BD008FEF91EE24E0D8
:1006F000815090402040E1F700C0000061E081E0BF
:100700000E94370161E081E00E94370187E091E0BB
:100710009F938F930E941A0261E371E081E00E942F
:10072000F10069E271E082E00E94F1008DB79EB7AE
:1007300008960FB6F8949EBF0FBE8DBFD2E0C1E001
:100740001F92DF931F92CF931F92DF931F92CF933D
:100750008EEF90E09F938F930E941A028FEF93EC9D
:1007600029E0815090402040E1F700C000001F9236
:10077000CF931F92DF931F92DF931F92CF933F92ED
:100780002F920E941A028FEF93EC29E08150904043
:100790002040E1F700C00000BA948DB79EB74496A0
:1007A0000FB6F8949EBF0FBE8DBFB110C9CF80E0C9
:1007B00092E00E94BD009FEF21EE84E09150204026
:1007C0008040E1F700C0000061E081E00E94370155
:1007D0001F928EE08F935F924F920E941A029FEFBA
:1007E00027EA81E6915020408040E1F700C00000F8
:1007F00061E081E00E9437011F928FE08F937F922A
:100800006F920E941A029FEF27EA81E691502040E2
:100810008040E1F700C0000080E092E00E94BD004F
:100820009FEF21EE84E0915020408040E1F700C02E
:10083000000061E081E00E94370161E081E00E94F8
:1008400037011F930F930E941A0262E081E00E9419
:1008500037018DB79EB70A960FB6F8949EBF0FBEAC
:100860008DBFB12CA12CD0E0C0E0C5018C2B9D2BFD
:1008700093600E94BD008FE79EE30197F1F700C0EF
:100880000000DF93CF93FF92EF920E941A0221960D
:1008900088E0A80EB11C0F900F900F900F90C830F9
:1008A000D10519F79FEF27EA81E69150204080405B
:1008B000E1F700C000001F9282E08F93DF92CF9299
:1008C0000E941A0262E081E00E9437010F900F90AF
:1008D0000F900F9040E4842E912CD0E0C0E05CEBB0
:1008E000A52E50E0B52EC4018C2B9D2B93600E9449
:1008F000BD008FE79EE30197F1F700C00000DF9392
:10090000CF93BF92AF920E941A02219688E0880E80
:10091000911C0F900F900F900F90C730D10519F7D1
:100920009FEF27EA81E6915020408040E1F700C028
:10093000000080E092E00E94BD009FEF21EE84E085
:10094000915020408040E1F700C0000061E081E06C
:100950000E94370161E081E00E9437018EEA90E059
:100960009F938F930E941A0262E081E00E943701F8
:100970000F900F9020E8822E912CD0E0C0E03BEA4F
:10098000A32E30E0B32EC4018C2B9D2B93600E94CC
:10099000BD008FE79EE30197F1F700C00000DF93F1
:1009A000CF93BF92AF920E941A02219688E0880EE0
:1009B000911C0F900F900F900F90C830D10519F730
:1009C0009FEF27EA81E6915020408040E1F700C088
:1009D000000080E092E00E94BD009FEF21EE84E0E5
:1009E000915020408040E1F700C0000061E081E0CC
:1009F0000E94370161E081E00E9437018CE990E0BC
:100A00009F938F930E941A0262E081E00E94370157
:100A100089E793E00E94BD008FE79EE30197F1F71D
:100A200000C000001F9289E08F931F92C1E0CF9316
:100A30001F9283E08F9382E990E09F938F930E94AF
:100A40001A029FEF27EA81E6915020408040E1F7AB
:100A500000C0000080E092E00E94BD009FEF21EE08
:100A600084E0915020408040E1F700C0000061E048
:100A700081E00E943701C093000161E081E00E94A3
:100A8000370188E890E09F938F930E941A0262E0FA
:100A900081E00E9437011F9280E28F931F9287E2CC
:100AA0008F931F9282E18F931F928DE28F938CE739
:100AB00090E09F938F930E941A029FEF27EA81E6AE
:100AC000915020408040E1F700C0000080E092E0BB
:100AD0000E94BD009FEF21EE84E0915020408040B5
:100AE000E1F700C0000061E081E00E9437018AE484
:100AF00093E00E94BD008FE79EE30197F1F700C0ED
:100B0000000061E081E00E9437011F9282E08F9334
:100B100083E790E09F938F930E941A028DB79EB750
:100B20004A960FB6F8949EBF0FBE8DBFB12CA12C74
:100B300082E0882E93E0992EC8E6D0E0BF92AF9273
:100B40001F928F921F929F92DF93CF930E941A025F
:100B50008FEF99E628E1815090402040E1F700C0F6
:100B600000008FEFA81AB80A8DB79EB708960FB687
:100B7000F8949EBF0FBE8DBF9BE0A916B104F1F69D
:100B800012CD87FB082E062687FD819567FD6195AE
:100B90000E94CF050EF4919507FC81950895991B4D
:100BA00079E004C0991F961708F0961B881F7A9564
:0A0BB000C9F780950895F894FFCF6F
:100BBA000110101010101010101818181818181802
:100BCA00181C1C1C1C1C1C1C1C1E1E1E1E1E1E1E51
:100BDA001E1F1F1F1F1F1F1F1F001F1F1F00000098
:100BEA0000000000001F1F1F001027E80364000A0E
:020BFA000000F9
:00000001FF
